{
  "contractName": "myCryptoBox",
  "abi": [
    {
      "constant": true,
      "inputs": [
        {
          "name": "",
          "type": "address"
        }
      ],
      "name": "members",
      "outputs": [
        {
          "name": "addr",
          "type": "address"
        },
        {
          "name": "description",
          "type": "string"
        },
        {
          "name": "exists",
          "type": "bool"
        }
      ],
      "payable": false,
      "stateMutability": "view",
      "type": "function"
    },
    {
      "constant": true,
      "inputs": [
        {
          "name": "",
          "type": "address"
        }
      ],
      "name": "producers",
      "outputs": [
        {
          "name": "addr",
          "type": "address"
        },
        {
          "name": "description",
          "type": "string"
        },
        {
          "name": "location",
          "type": "string"
        },
        {
          "name": "exists",
          "type": "bool"
        }
      ],
      "payable": false,
      "stateMutability": "view",
      "type": "function"
    },
    {
      "constant": true,
      "inputs": [
        {
          "name": "",
          "type": "uint256"
        }
      ],
      "name": "items",
      "outputs": [
        {
          "name": "id",
          "type": "uint256"
        },
        {
          "name": "origin",
          "type": "string"
        }
      ],
      "payable": false,
      "stateMutability": "view",
      "type": "function"
    },
    {
      "inputs": [],
      "payable": false,
      "stateMutability": "nonpayable",
      "type": "constructor"
    },
    {
      "anonymous": false,
      "inputs": [
        {
          "indexed": true,
          "name": "boxId",
          "type": "uint256"
        },
        {
          "indexed": false,
          "name": "producerDescription",
          "type": "string"
        },
        {
          "indexed": false,
          "name": "origin",
          "type": "string"
        },
        {
          "indexed": false,
          "name": "location",
          "type": "string"
        }
      ],
      "name": "Produce",
      "type": "event"
    },
    {
      "anonymous": false,
      "inputs": [
        {
          "indexed": false,
          "name": "sender",
          "type": "address"
        },
        {
          "indexed": false,
          "name": "senderDescription",
          "type": "string"
        },
        {
          "indexed": false,
          "name": "receiver",
          "type": "address"
        },
        {
          "indexed": false,
          "name": "receiverDescription",
          "type": "string"
        },
        {
          "indexed": true,
          "name": "boxId",
          "type": "uint256"
        },
        {
          "indexed": false,
          "name": "location",
          "type": "string"
        },
        {
          "indexed": false,
          "name": "timestamp",
          "type": "uint256"
        }
      ],
      "name": "Send",
      "type": "event"
    },
    {
      "constant": false,
      "inputs": [
        {
          "name": "_addr",
          "type": "address"
        },
        {
          "name": "_description",
          "type": "string"
        }
      ],
      "name": "registerMember",
      "outputs": [],
      "payable": false,
      "stateMutability": "nonpayable",
      "type": "function"
    },
    {
      "constant": false,
      "inputs": [
        {
          "name": "_addr",
          "type": "address"
        },
        {
          "name": "_description",
          "type": "string"
        },
        {
          "name": "_location",
          "type": "string"
        }
      ],
      "name": "registerProducer",
      "outputs": [],
      "payable": false,
      "stateMutability": "nonpayable",
      "type": "function"
    },
    {
      "constant": false,
      "inputs": [
        {
          "name": "_addr",
          "type": "address"
        },
        {
          "name": "_description",
          "type": "string"
        }
      ],
      "name": "setMember",
      "outputs": [],
      "payable": false,
      "stateMutability": "nonpayable",
      "type": "function"
    },
    {
      "constant": false,
      "inputs": [
        {
          "name": "_addr",
          "type": "address"
        },
        {
          "name": "_description",
          "type": "string"
        },
        {
          "name": "_location",
          "type": "string"
        }
      ],
      "name": "setProducer",
      "outputs": [],
      "payable": false,
      "stateMutability": "nonpayable",
      "type": "function"
    },
    {
      "constant": false,
      "inputs": [
        {
          "name": "_addr",
          "type": "address"
        }
      ],
      "name": "removeMember",
      "outputs": [],
      "payable": false,
      "stateMutability": "nonpayable",
      "type": "function"
    },
    {
      "constant": false,
      "inputs": [
        {
          "name": "_addr",
          "type": "address"
        }
      ],
      "name": "removeProducer",
      "outputs": [],
      "payable": false,
      "stateMutability": "nonpayable",
      "type": "function"
    },
    {
      "constant": false,
      "inputs": [
        {
          "name": "_to",
          "type": "address"
        },
        {
          "name": "_origin",
          "type": "string"
        },
        {
          "name": "_location",
          "type": "string"
        }
      ],
      "name": "produce",
      "outputs": [],
      "payable": false,
      "stateMutability": "nonpayable",
      "type": "function"
    },
    {
      "constant": false,
      "inputs": [
        {
          "name": "_to",
          "type": "address"
        },
        {
          "name": "_location",
          "type": "string"
        },
        {
          "name": "_boxId",
          "type": "uint256"
        }
      ],
      "name": "transfer",
      "outputs": [],
      "payable": false,
      "stateMutability": "nonpayable",
      "type": "function"
    },
    {
      "constant": true,
      "inputs": [
        {
          "name": "_addr",
          "type": "address"
        }
      ],
      "name": "getMember",
      "outputs": [
        {
          "name": "",
          "type": "address"
        },
        {
          "name": "",
          "type": "string"
        }
      ],
      "payable": false,
      "stateMutability": "view",
      "type": "function"
    },
    {
      "constant": true,
      "inputs": [
        {
          "name": "_addr",
          "type": "address"
        }
      ],
      "name": "getProducer",
      "outputs": [
        {
          "name": "",
          "type": "address"
        },
        {
          "name": "",
          "type": "string"
        }
      ],
      "payable": false,
      "stateMutability": "view",
      "type": "function"
    },
    {
      "constant": false,
      "inputs": [
        {
          "name": "_stopped",
          "type": "bool"
        }
      ],
      "name": "setStopped",
      "outputs": [],
      "payable": false,
      "stateMutability": "nonpayable",
      "type": "function"
    }
  ],
  "bytecode": "0x608060405234801561001057600080fd5b50336000806101000a81548173ffffffffffffffffffffffffffffffffffffffff021916908373ffffffffffffffffffffffffffffffffffffffff160217905550612545806100606000396000f3006080604052600436106100d0576000357c0100000000000000000000000000000000000000000000000000000000900463ffffffff16806308ae4b0c146100d55780630aa5adfc146101cf5780630b1ca49a1461022a57806326324eff1461026d5780632ada2596146103d35780633f185b6c146104c257806345f599c714610505578063820a723714610578578063aab147b2146105eb578063bdd1a6c3146106da578063bfb231d21461074d578063d50e829e146107fa578063e55fadb514610829578063fff3a01b14610884575b600080fd5b3480156100e157600080fd5b50610116600480360381019080803573ffffffffffffffffffffffffffffffffffffffff1690602001909291905050506108e9565b604051808473ffffffffffffffffffffffffffffffffffffffff1673ffffffffffffffffffffffffffffffffffffffff1681526020018060200183151515158152602001828103825284818151815260200191508051906020019080838360005b83811015610192578082015181840152602081019050610177565b50505050905090810190601f1680156101bf5780820380516001836020036101000a031916815260200191505b5094505050505060405180910390f35b3480156101db57600080fd5b50610228600480360381019080803573ffffffffffffffffffffffffffffffffffffffff1690602001909291908035906020019082018035906020019190919293919293905050506109d8565b005b34801561023657600080fd5b5061026b600480360381019080803573ffffffffffffffffffffffffffffffffffffffff169060200190929190505050610b25565b005b34801561027957600080fd5b506102ae600480360381019080803573ffffffffffffffffffffffffffffffffffffffff169060200190929190505050610c2c565b604051808573ffffffffffffffffffffffffffffffffffffffff1673ffffffffffffffffffffffffffffffffffffffff168152602001806020018060200184151515158152602001838103835286818151815260200191508051906020019080838360005b8381101561032e578082015181840152602081019050610313565b50505050905090810190601f16801561035b5780820380516001836020036101000a031916815260200191505b50838103825285818151815260200191508051906020019080838360005b83811015610394578082015181840152602081019050610379565b50505050905090810190601f1680156103c15780820380516001836020036101000a031916815260200191505b50965050505050505060405180910390f35b3480156103df57600080fd5b50610414600480360381019080803573ffffffffffffffffffffffffffffffffffffffff169060200190929190505050610db9565b604051808373ffffffffffffffffffffffffffffffffffffffff1673ffffffffffffffffffffffffffffffffffffffff16815260200180602001828103825283818151815260200191508051906020019080838360005b8381101561048657808201518184015260208101905061046b565b50505050905090810190601f1680156104b35780820380516001836020036101000a031916815260200191505b50935050505060405180910390f35b3480156104ce57600080fd5b50610503600480360381019080803573ffffffffffffffffffffffffffffffffffffffff169060200190929190505050610f68565b005b34801561051157600080fd5b50610576600480360381019080803573ffffffffffffffffffffffffffffffffffffffff16906020019092919080359060200190820180359060200191909192939192939080359060200190820180359060200191909192939192939050505061107f565b005b34801561058457600080fd5b506105e9600480360381019080803573ffffffffffffffffffffffffffffffffffffffff16906020019092919080359060200190820180359060200191909192939192939080359060200190820180359060200191909192939192939050505061181c565b005b3480156105f757600080fd5b5061062c600480360381019080803573ffffffffffffffffffffffffffffffffffffffff16906020019092919050505061197f565b604051808373ffffffffffffffffffffffffffffffffffffffff1673ffffffffffffffffffffffffffffffffffffffff16815260200180602001828103825283818151815260200191508051906020019080838360005b8381101561069e578082015181840152602081019050610683565b50505050905090810190601f1680156106cb5780820380516001836020036101000a031916815260200191505b50935050505060405180910390f35b3480156106e657600080fd5b5061074b600480360381019080803573ffffffffffffffffffffffffffffffffffffffff169060200190929190803590602001908201803590602001919091929391929390803590602001908201803590602001919091929391929390505050611bd0565b005b34801561075957600080fd5b5061077860048036038101908080359060200190929190505050611cd7565b6040518083815260200180602001828103825283818151815260200191508051906020019080838360005b838110156107be5780820151818401526020810190506107a3565b50505050905090810190601f1680156107eb5780820380516001836020036101000a031916815260200191505b50935050505060405180910390f35b34801561080657600080fd5b50610827600480360381019080803515159060200190929190505050611d93565b005b34801561083557600080fd5b50610882600480360381019080803573ffffffffffffffffffffffffffffffffffffffff169060200190929190803590602001908201803590602001919091929391929390505050611e0b565b005b34801561089057600080fd5b506108e7600480360381019080803573ffffffffffffffffffffffffffffffffffffffff16906020019092919080359060200190820180359060200191909192939192939080359060200190929190505050611efc565b005b60016020528060005260406000206000915090508060000160009054906101000a900473ffffffffffffffffffffffffffffffffffffffff1690806001018054600181600116156101000203166002900480601f0160208091040260200160405190810160405280929190818152602001828054600181600116156101000203166002900480156109bb5780601f10610990576101008083540402835291602001916109bb565b820191906000526020600020905b81548152906001019060200180831161099e57829003601f168201915b5050505050908060020160009054906101000a900460ff16905083565b60008060009054906101000a900473ffffffffffffffffffffffffffffffffffffffff1673ffffffffffffffffffffffffffffffffffffffff163373ffffffffffffffffffffffffffffffffffffffff16141515610a3557600080fd5b600060149054906101000a900460ff16151515610a5157600080fd5b600160008573ffffffffffffffffffffffffffffffffffffffff1673ffffffffffffffffffffffffffffffffffffffff16815260200190815260200160002090508060020160009054906101000a900460ff161515610b1f57838160000160006101000a81548173ffffffffffffffffffffffffffffffffffffffff021916908373ffffffffffffffffffffffffffffffffffffffff1602179055508282826001019190610b009291906123b1565b5060018160020160006101000a81548160ff0219169083151502179055505b50505050565b6000809054906101000a900473ffffffffffffffffffffffffffffffffffffffff1673ffffffffffffffffffffffffffffffffffffffff163373ffffffffffffffffffffffffffffffffffffffff16141515610b8057600080fd5b600060149054906101000a900460ff16151515610b9c57600080fd5b600160008273ffffffffffffffffffffffffffffffffffffffff1673ffffffffffffffffffffffffffffffffffffffff168152602001908152602001600020600080820160006101000a81549073ffffffffffffffffffffffffffffffffffffffff0219169055600182016000610c139190612431565b6002820160006101000a81549060ff0219169055505050565b60026020528060005260406000206000915090508060000160009054906101000a900473ffffffffffffffffffffffffffffffffffffffff1690806001018054600181600116156101000203166002900480601f016020809104026020016040519081016040528092919081815260200182805460018160011615610100020316600290048015610cfe5780601f10610cd357610100808354040283529160200191610cfe565b820191906000526020600020905b815481529060010190602001808311610ce157829003601f168201915b505050505090806002018054600181600116156101000203166002900480601f016020809104026020016040519081016040528092919081815260200182805460018160011615610100020316600290048015610d9c5780601f10610d7157610100808354040283529160200191610d9c565b820191906000526020600020905b815481529060010190602001808311610d7f57829003601f168201915b5050505050908060030160009054906101000a900460ff16905084565b60006060610dc5612479565b600060149054906101000a900460ff16151515610de157600080fd5b600160008573ffffffffffffffffffffffffffffffffffffffff1673ffffffffffffffffffffffffffffffffffffffff168152602001908152602001600020606060405190810160405290816000820160009054906101000a900473ffffffffffffffffffffffffffffffffffffffff1673ffffffffffffffffffffffffffffffffffffffff1673ffffffffffffffffffffffffffffffffffffffff168152602001600182018054600181600116156101000203166002900480601f016020809104026020016040519081016040528092919081815260200182805460018160011615610100020316600290048015610f1b5780601f10610ef057610100808354040283529160200191610f1b565b820191906000526020600020905b815481529060010190602001808311610efe57829003601f168201915b505050505081526020016002820160009054906101000a900460ff161515151581525050905080604001511515610f5157600080fd5b806000015181602001518090509250925050915091565b6000809054906101000a900473ffffffffffffffffffffffffffffffffffffffff1673ffffffffffffffffffffffffffffffffffffffff163373ffffffffffffffffffffffffffffffffffffffff16141515610fc357600080fd5b600060149054906101000a900460ff16151515610fdf57600080fd5b600260008273ffffffffffffffffffffffffffffffffffffffff1673ffffffffffffffffffffffffffffffffffffffff168152602001908152602001600020600080820160006101000a81549073ffffffffffffffffffffffffffffffffffffffff02191690556001820160006110569190612431565b6002820160006110669190612431565b6003820160006101000a81549060ff0219169055505050565b6110876124b3565b61108f612479565b600080600060149054906101000a900460ff161515156110ae57600080fd5b600260003373ffffffffffffffffffffffffffffffffffffffff1673ffffffffffffffffffffffffffffffffffffffff168152602001908152602001600020608060405190810160405290816000820160009054906101000a900473ffffffffffffffffffffffffffffffffffffffff1673ffffffffffffffffffffffffffffffffffffffff1673ffffffffffffffffffffffffffffffffffffffff168152602001600182018054600181600116156101000203166002900480601f0160208091040260200160405190810160405280929190818152602001828054600181600116156101000203166002900480156111e85780601f106111bd576101008083540402835291602001916111e8565b820191906000526020600020905b8154815290600101906020018083116111cb57829003601f168201915b50505050508152602001600282018054600181600116156101000203166002900480601f01602080910402602001604051908101604052809291908181526020018280546001816001161561010002031660029004801561128a5780601f1061125f5761010080835404028352916020019161128a565b820191906000526020600020905b81548152906001019060200180831161126d57829003601f168201915b505050505081526020016003820160009054906101000a900460ff1615151515815250509350600160008a73ffffffffffffffffffffffffffffffffffffffff1673ffffffffffffffffffffffffffffffffffffffff168152602001908152602001600020606060405190810160405290816000820160009054906101000a900473ffffffffffffffffffffffffffffffffffffffff1673ffffffffffffffffffffffffffffffffffffffff1673ffffffffffffffffffffffffffffffffffffffff168152602001600182018054600181600116156101000203166002900480601f0160208091040260200160405190810160405280929190818152602001828054600181600116156101000203166002900480156113ea5780601f106113bf576101008083540402835291602001916113ea565b820191906000526020600020905b8154815290600101906020018083116113cd57829003601f168201915b505050505081526020016002820160009054906101000a900460ff161515151581525050925083606001518015611422575082604001515b151561142d57600080fd5b4233604051808381526020018273ffffffffffffffffffffffffffffffffffffffff1673ffffffffffffffffffffffffffffffffffffffff166c0100000000000000000000000002815260140192505050604051809103902060019004915060036000838152602001908152602001600020905081816000018190555087878260010191906114bd9291906123b1565b5080600001547f59b1662d5b7e47ad7dd035f2ce8d58a1f21df04d8938a01be87cfa75ea6e5427856020015183600101876040015160405180806020018060200180602001848103845287818151815260200191508051906020019080838360005b8381101561153a57808201518184015260208101905061151f565b50505050905090810190601f1680156115675780820380516001836020036101000a031916815260200191505b508481038352868181546001816001161561010002031660029004815260200191508054600181600116156101000203166002900480156115e95780601f106115be576101008083540402835291602001916115e9565b820191906000526020600020905b8154815290600101906020018083116115cc57829003601f168201915b5050848103825285818151815260200191508051906020019080838360005b83811015611623578082015181840152602081019050611608565b50505050905090810190601f1680156116505780820380516001836020036101000a031916815260200191505b50965050505050505060405180910390a280600001547f69f956c3e4bd57f8ecc597e74fef1e052e24e3c8ec6ee02379ff21dc1b4e75da85600001518660200151866000015187602001518b8b42604051808873ffffffffffffffffffffffffffffffffffffffff1673ffffffffffffffffffffffffffffffffffffffff168152602001806020018773ffffffffffffffffffffffffffffffffffffffff1673ffffffffffffffffffffffffffffffffffffffff168152602001806020018060200185815260200184810384528a818151815260200191508051906020019080838360005b83811015611750578082015181840152602081019050611735565b50505050905090810190601f16801561177d5780820380516001836020036101000a031916815260200191505b50848103835288818151815260200191508051906020019080838360005b838110156117b657808201518184015260208101905061179b565b50505050905090810190601f1680156117e35780820380516001836020036101000a031916815260200191505b50848103825287878281815260200192508082843782019150509a505050505050505050505060405180910390a2505050505050505050565b60008060009054906101000a900473ffffffffffffffffffffffffffffffffffffffff1673ffffffffffffffffffffffffffffffffffffffff163373ffffffffffffffffffffffffffffffffffffffff1614151561187957600080fd5b600060149054906101000a900460ff1615151561189557600080fd5b600260008773ffffffffffffffffffffffffffffffffffffffff1673ffffffffffffffffffffffffffffffffffffffff16815260200190815260200160002090508060030160009054906101000a900460ff16151561197757858160000160006101000a81548173ffffffffffffffffffffffffffffffffffffffff021916908373ffffffffffffffffffffffffffffffffffffffff16021790555084848260010191906119449291906123b1565b5082828260020191906119589291906123b1565b5060018160030160006101000a81548160ff0219169083151502179055505b505050505050565b6000606061198b6124b3565b600060149054906101000a900460ff161515156119a757600080fd5b600260008573ffffffffffffffffffffffffffffffffffffffff1673ffffffffffffffffffffffffffffffffffffffff168152602001908152602001600020608060405190810160405290816000820160009054906101000a900473ffffffffffffffffffffffffffffffffffffffff1673ffffffffffffffffffffffffffffffffffffffff1673ffffffffffffffffffffffffffffffffffffffff168152602001600182018054600181600116156101000203166002900480601f016020809104026020016040519081016040528092919081815260200182805460018160011615610100020316600290048015611ae15780601f10611ab657610100808354040283529160200191611ae1565b820191906000526020600020905b815481529060010190602001808311611ac457829003601f168201915b50505050508152602001600282018054600181600116156101000203166002900480601f016020809104026020016040519081016040528092919081815260200182805460018160011615610100020316600290048015611b835780601f10611b5857610100808354040283529160200191611b83565b820191906000526020600020905b815481529060010190602001808311611b6657829003601f168201915b505050505081526020016003820160009054906101000a900460ff161515151581525050905080606001511515611bb957600080fd5b806000015181602001518090509250925050915091565b60008060009054906101000a900473ffffffffffffffffffffffffffffffffffffffff1673ffffffffffffffffffffffffffffffffffffffff163373ffffffffffffffffffffffffffffffffffffffff16141515611c2d57600080fd5b600060149054906101000a900460ff16151515611c4957600080fd5b600260008773ffffffffffffffffffffffffffffffffffffffff1673ffffffffffffffffffffffffffffffffffffffff16815260200190815260200160002090508060030160009054906101000a900460ff161515611ca757600080fd5b8484826001019190611cba9291906123b1565b508282826002019190611cce9291906123b1565b50505050505050565b6003602052806000526040600020600091509050806000015490806001018054600181600116156101000203166002900480601f016020809104026020016040519081016040528092919081815260200182805460018160011615610100020316600290048015611d895780601f10611d5e57610100808354040283529160200191611d89565b820191906000526020600020905b815481529060010190602001808311611d6c57829003601f168201915b5050505050905082565b6000809054906101000a900473ffffffffffffffffffffffffffffffffffffffff1673ffffffffffffffffffffffffffffffffffffffff163373ffffffffffffffffffffffffffffffffffffffff16141515611dee57600080fd5b80600060146101000a81548160ff02191690831515021790555050565b60008060009054906101000a900473ffffffffffffffffffffffffffffffffffffffff1673ffffffffffffffffffffffffffffffffffffffff163373ffffffffffffffffffffffffffffffffffffffff16141515611e6857600080fd5b600060149054906101000a900460ff16151515611e8457600080fd5b600160008573ffffffffffffffffffffffffffffffffffffffff1673ffffffffffffffffffffffffffffffffffffffff16815260200190815260200160002090508060020160009054906101000a900460ff161515611ee257600080fd5b8282826001019190611ef59291906123b1565b5050505050565b611f04612479565b611f0c612479565b600060149054906101000a900460ff16151515611f2857600080fd5b600160003373ffffffffffffffffffffffffffffffffffffffff1673ffffffffffffffffffffffffffffffffffffffff168152602001908152602001600020606060405190810160405290816000820160009054906101000a900473ffffffffffffffffffffffffffffffffffffffff1673ffffffffffffffffffffffffffffffffffffffff1673ffffffffffffffffffffffffffffffffffffffff168152602001600182018054600181600116156101000203166002900480601f0160208091040260200160405190810160405280929190818152602001828054600181600116156101000203166002900480156120625780601f1061203757610100808354040283529160200191612062565b820191906000526020600020905b81548152906001019060200180831161204557829003601f168201915b505050505081526020016002820160009054906101000a900460ff1615151515815250509150600160008773ffffffffffffffffffffffffffffffffffffffff1673ffffffffffffffffffffffffffffffffffffffff168152602001908152602001600020606060405190810160405290816000820160009054906101000a900473ffffffffffffffffffffffffffffffffffffffff1673ffffffffffffffffffffffffffffffffffffffff1673ffffffffffffffffffffffffffffffffffffffff168152602001600182018054600181600116156101000203166002900480601f0160208091040260200160405190810160405280929190818152602001828054600181600116156101000203166002900480156121c25780601f10612197576101008083540402835291602001916121c2565b820191906000526020600020905b8154815290600101906020018083116121a557829003601f168201915b505050505081526020016002820160009054906101000a900460ff1615151515815250509050816040015180156121fa575080604001515b151561220557600080fd5b827f69f956c3e4bd57f8ecc597e74fef1e052e24e3c8ec6ee02379ff21dc1b4e75da3384602001518985602001518a8a42604051808873ffffffffffffffffffffffffffffffffffffffff1673ffffffffffffffffffffffffffffffffffffffff168152602001806020018773ffffffffffffffffffffffffffffffffffffffff1673ffffffffffffffffffffffffffffffffffffffff168152602001806020018060200185815260200184810384528a818151815260200191508051906020019080838360005b838110156122e85780820151818401526020810190506122cd565b50505050905090810190601f1680156123155780820380516001836020036101000a031916815260200191505b50848103835288818151815260200191508051906020019080838360005b8381101561234e578082015181840152602081019050612333565b50505050905090810190601f16801561237b5780820380516001836020036101000a031916815260200191505b50848103825287878281815260200192508082843782019150509a505050505050505050505060405180910390a2505050505050565b828054600181600116156101000203166002900490600052602060002090601f016020900481019282601f106123f257803560ff1916838001178555612420565b82800160010185558215612420579182015b8281111561241f578235825591602001919060010190612404565b5b50905061242d91906124f4565b5090565b50805460018160011615610100020316600290046000825580601f106124575750612476565b601f01602090049060005260206000209081019061247591906124f4565b5b50565b606060405190810160405280600073ffffffffffffffffffffffffffffffffffffffff168152602001606081526020016000151581525090565b608060405190810160405280600073ffffffffffffffffffffffffffffffffffffffff16815260200160608152602001606081526020016000151581525090565b61251691905b808211156125125760008160009055506001016124fa565b5090565b905600a165627a7a72305820995e7dd58d7e06f1497647d5c878b16838cdbfbd950de539529e05e2f12932860029",
  "source": "pragma solidity ^0.4.24;\r\n\r\ncontract myCryptoBox {\r\n\r\n    struct Member {     //  \r\n        address addr;\r\n        string description;\r\n        bool exists;\r\n    }\r\n\r\n    struct Producer {       //  \r\n        address addr;\r\n        string description;\r\n        string location;\r\n        bool exists;\r\n    }\r\n\r\n    struct Item {           //  \r\n        uint id;\r\n        string origin;\r\n    }\r\n\r\n    address private owner;\r\n    bool private stopped;\r\n\r\n    mapping(address => Member) public members;\r\n    mapping(address => Producer) public producers;\r\n    mapping(uint => Item) public items;\r\n\r\n    event Produce(uint indexed boxId, string producerDescription, string origin, string location);\r\n    event Send(address sender, string senderDescription, address receiver, string receiverDescription, uint indexed boxId, string location, uint timestamp);\r\n\r\n    modifier onlyOwner(){\r\n        require(msg.sender == owner);\r\n        _;\r\n    }\r\n\r\n    modifier isStopped(){       // Circuit Breaker \r\n        require(!stopped);\r\n        _;\r\n    }\r\n\r\n    constructor() public {\r\n        owner = msg.sender;\r\n    }\r\n\r\n    function registerMember(address _addr, string _description) external onlyOwner isStopped {       //  \r\n        Member storage member = members[_addr];\r\n        if(!member.exists){\r\n            member.addr = _addr;\r\n            member.description = _description;\r\n            member.exists = true;\r\n        }\r\n    }\r\n\r\n    function registerProducer(address _addr, string _description, string _location) external onlyOwner isStopped {\r\n        Producer storage producer = producers[_addr];\r\n        if(!producer.exists){\r\n            producer.addr = _addr;\r\n            producer.description = _description;\r\n            producer.location = _location;\r\n            producer.exists = true;\r\n        }\r\n    }\r\n\r\n    function setMember(address _addr, string _description) external onlyOwner isStopped {\r\n        Member storage member = members[_addr];\r\n        require(member.exists);\r\n        member.description = _description;\r\n    }\r\n\r\n    function setProducer(address _addr, string _description, string _location) external onlyOwner isStopped {\r\n        Producer storage producer = producers[_addr];\r\n        require(producer.exists);\r\n        producer.description = _description;\r\n        producer.location = _location;\r\n    }\r\n\r\n    function removeMember(address _addr) external onlyOwner isStopped {     //  \r\n        delete members[_addr];\r\n    }\r\n\r\n    function removeProducer(address _addr) external onlyOwner isStopped {   //  \r\n        delete producers[_addr];\r\n    }\r\n\r\n    function produce(address _to, string _origin, string _location) external isStopped {       //   \r\n        Producer memory sender = producers[msg.sender];\r\n        Member memory receiver = members[_to];\r\n        require(sender.exists && receiver.exists);\r\n\r\n        uint id = uint(keccak256(now, msg.sender));\r\n        Item storage item = items[id];\r\n        item.id = id;\r\n        item.origin = _origin;\r\n\r\n        emit Produce(item.id, sender.description, item.origin, sender.location);\r\n        emit Send(sender.addr, sender.description, receiver.addr, receiver.description, item.id, _location, now);\r\n    }\r\n\r\n    function transfer(address _to, string _location, uint _boxId) external isStopped {     //   \r\n        Member memory sender = members[msg.sender];\r\n        Member memory receiver = members[_to];\r\n\r\n        require(sender.exists && receiver.exists);      // sender, receiver      \r\n\r\n        emit Send(msg.sender, sender.description, _to, receiver.description, _boxId, _location, now);     //  ,  ,  ,  ,  id , , timestamp\r\n    }\r\n\r\n    function getMember(address _addr) external isStopped view returns(address, string) {        // member \r\n        Member memory member = members[_addr];\r\n        require(member.exists);\r\n\r\n        return (member.addr, member.description);\r\n    }\r\n\r\n    function getProducer(address _addr) external isStopped view returns(address, string) {        // member \r\n        Producer memory producer = producers[_addr];\r\n        require(producer.exists);\r\n\r\n        return (producer.addr, producer.description);\r\n    }\r\n\r\n    function setStopped(bool _stopped) external onlyOwner{\r\n        stopped = _stopped;\r\n    }\r\n\r\n}",
  "sourcePath": "C:\\Users\\DoWon\\SolidityProjects\\MyCrpytoBox\\contracts\\myCryptoBox.sol",
  "compiler": {
    "name": "solc",
    "version": "0.4.24+commit.e67f0147.Emscripten.clang"
  },
  "schemaVersion": "2.0.1",
  "updatedAt": "2018-08-17T06:30:22.273Z"
}