{
  "contractName": "myCrpytoBox",
  "abi": [
    {
      "constant": true,
      "inputs": [
        {
          "name": "",
          "type": "address"
        }
      ],
      "name": "corporation",
      "outputs": [
        {
          "name": "",
          "type": "string"
        }
      ],
      "payable": false,
      "stateMutability": "view",
      "type": "function"
    },
    {
      "inputs": [],
      "payable": false,
      "stateMutability": "nonpayable",
      "type": "constructor"
    },
    {
      "anonymous": false,
      "inputs": [
        {
          "indexed": false,
          "name": "from",
          "type": "address"
        },
        {
          "indexed": false,
          "name": "to",
          "type": "address"
        },
        {
          "indexed": true,
          "name": "boxId",
          "type": "string"
        }
      ],
      "name": "Send",
      "type": "event"
    },
    {
      "constant": false,
      "inputs": [
        {
          "name": "_from",
          "type": "address"
        },
        {
          "name": "_to",
          "type": "address"
        },
        {
          "name": "_boxId",
          "type": "string"
        }
      ],
      "name": "transfer",
      "outputs": [
        {
          "name": "",
          "type": "bool"
        }
      ],
      "payable": false,
      "stateMutability": "nonpayable",
      "type": "function"
    },
    {
      "constant": false,
      "inputs": [
        {
          "name": "_description",
          "type": "string"
        }
      ],
      "name": "register",
      "outputs": [
        {
          "name": "",
          "type": "bool"
        }
      ],
      "payable": false,
      "stateMutability": "nonpayable",
      "type": "function"
    }
  ],
  "bytecode": "0x608060405234801561001057600080fd5b50336000806101000a81548173ffffffffffffffffffffffffffffffffffffffff021916908373ffffffffffffffffffffffffffffffffffffffff16021790555061053d806100606000396000f300608060405260043610610057576000357c0100000000000000000000000000000000000000000000000000000000900463ffffffff1680633757f1241461005c578063397bfa9214610118578063f2c298be146101d9575b600080fd5b34801561006857600080fd5b5061009d600480360381019080803573ffffffffffffffffffffffffffffffffffffffff16906020019092919050505061025a565b6040518080602001828103825283818151815260200191508051906020019080838360005b838110156100dd5780820151818401526020810190506100c2565b50505050905090810190601f16801561010a5780820380516001836020036101000a031916815260200191505b509250505060405180910390f35b34801561012457600080fd5b506101bf600480360381019080803573ffffffffffffffffffffffffffffffffffffffff169060200190929190803573ffffffffffffffffffffffffffffffffffffffff169060200190929190803590602001908201803590602001908080601f016020809104026020016040519081016040528093929190818152602001838380828437820191505050505050919291929050505061030a565b604051808215151515815260200191505060405180910390f35b3480156101e557600080fd5b50610240600480360381019080803590602001908201803590602001908080601f0160208091040260200160405190810160405280939291908181526020018383808284378201915050505050509192919290505050610411565b604051808215151515815260200191505060405180910390f35b60016020528060005260406000206000915090508054600181600116156101000203166002900480601f0160208091040260200160405190810160405280929190818152602001828054600181600116156101000203166002900480156103025780601f106102d757610100808354040283529160200191610302565b820191906000526020600020905b8154815290600101906020018083116102e557829003601f168201915b505050505081565b6000816040518082805190602001908083835b602083101515610342578051825260208201915060208101905060208303925061031d565b6001836020036101000a03801982511681845116808217855250505050505090500191505060405180910390207fb53a0a2251075d1bc8c4dcce157b80078af99958b6ff4f15bf48a414270d77798585604051808373ffffffffffffffffffffffffffffffffffffffff1673ffffffffffffffffffffffffffffffffffffffff1681526020018273ffffffffffffffffffffffffffffffffffffffff1673ffffffffffffffffffffffffffffffffffffffff1681526020019250505060405180910390a2600190509392505050565b600081600160003373ffffffffffffffffffffffffffffffffffffffff1673ffffffffffffffffffffffffffffffffffffffff168152602001908152602001600020908051906020019061046692919061046c565b50919050565b828054600181600116156101000203166002900490600052602060002090601f016020900481019282601f106104ad57805160ff19168380011785556104db565b828001600101855582156104db579182015b828111156104da5782518255916020019190600101906104bf565b5b5090506104e891906104ec565b5090565b61050e91905b8082111561050a5760008160009055506001016104f2565b5090565b905600a165627a7a723058203e203ba37de4ab9de0efa1e9ab8359bbb24e39f18e93246e8250b83e9d41e2390029",
  "source": "pragma solidity ^0.4.24;\r\n\r\ncontract myCrpytoBox {\r\n\r\n    address owner;\r\n    mapping(address => string) public corporation;\r\n\r\n    event Send(address from, address to, string indexed boxId);\r\n\r\n    constructor() public {\r\n        owner = msg.sender;\r\n    }\r\n\r\n    function transfer(address _from, address _to, string _boxId) public returns (bool){\r\n\r\n        emit Send(_from, _to, _boxId);\r\n\r\n        return true;\r\n    }\r\n\r\n    function register(string _description) public returns (bool){\r\n        corporation[msg.sender] = _description;\r\n\r\n    }\r\n}\r\n",
  "sourcePath": "C:\\Users\\DoWon\\SolidityProjects\\MyCrpytoBox\\contracts\\myCrpytoBox.sol",
  "compiler": {
    "name": "solc",
    "version": "0.4.24+commit.e67f0147.Emscripten.clang"
  },
  "schemaVersion": "2.0.1",
  "updatedAt": "2018-08-10T07:30:30.751Z"
}